{
  "contractName": "EthReview",
  "abi": [
    {
      "constant": true,
      "inputs": [],
      "name": "name",
      "outputs": [
        {
          "name": "",
          "type": "string"
        }
      ],
      "payable": false,
      "stateMutability": "view",
      "type": "function",
      "signature": "0x06fdde03"
    },
    {
      "constant": true,
      "inputs": [],
      "name": "reviewId",
      "outputs": [
        {
          "name": "",
          "type": "uint256"
        }
      ],
      "payable": false,
      "stateMutability": "view",
      "type": "function",
      "signature": "0x20fceae8"
    },
    {
      "constant": true,
      "inputs": [],
      "name": "rate",
      "outputs": [
        {
          "name": "",
          "type": "uint256"
        }
      ],
      "payable": false,
      "stateMutability": "view",
      "type": "function",
      "signature": "0x2c4e722e"
    },
    {
      "constant": true,
      "inputs": [],
      "name": "restaurantId",
      "outputs": [
        {
          "name": "",
          "type": "uint256"
        }
      ],
      "payable": false,
      "stateMutability": "view",
      "type": "function",
      "signature": "0x2f8fa845"
    },
    {
      "constant": true,
      "inputs": [
        {
          "name": "",
          "type": "uint256"
        }
      ],
      "name": "restaurants",
      "outputs": [
        {
          "name": "id",
          "type": "uint256"
        },
        {
          "name": "name",
          "type": "string"
        },
        {
          "name": "street",
          "type": "string"
        }
      ],
      "payable": false,
      "stateMutability": "view",
      "type": "function",
      "signature": "0xad5461d8"
    },
    {
      "constant": true,
      "inputs": [],
      "name": "tokenAmountReview",
      "outputs": [
        {
          "name": "",
          "type": "uint256"
        }
      ],
      "payable": false,
      "stateMutability": "view",
      "type": "function",
      "signature": "0xe600f7af"
    },
    {
      "constant": true,
      "inputs": [
        {
          "name": "",
          "type": "uint256"
        }
      ],
      "name": "reviews",
      "outputs": [
        {
          "name": "id",
          "type": "uint256"
        },
        {
          "name": "restaurantId",
          "type": "uint256"
        },
        {
          "name": "content",
          "type": "string"
        },
        {
          "name": "account",
          "type": "address"
        }
      ],
      "payable": false,
      "stateMutability": "view",
      "type": "function",
      "signature": "0xe83ddcea"
    },
    {
      "constant": true,
      "inputs": [],
      "name": "token",
      "outputs": [
        {
          "name": "",
          "type": "address"
        }
      ],
      "payable": false,
      "stateMutability": "view",
      "type": "function",
      "signature": "0xfc0c546a"
    },
    {
      "inputs": [
        {
          "name": "_token",
          "type": "address"
        }
      ],
      "payable": false,
      "stateMutability": "nonpayable",
      "type": "constructor",
      "signature": "constructor"
    },
    {
      "anonymous": false,
      "inputs": [
        {
          "indexed": false,
          "name": "account",
          "type": "address"
        },
        {
          "indexed": false,
          "name": "token",
          "type": "address"
        },
        {
          "indexed": false,
          "name": "amount",
          "type": "uint256"
        },
        {
          "indexed": false,
          "name": "rate",
          "type": "uint256"
        }
      ],
      "name": "TokensPurchased",
      "type": "event",
      "signature": "0x6faf93231a456e552dbc9961f58d9713ee4f2e69d15f1975b050ef0911053a7b"
    },
    {
      "anonymous": false,
      "inputs": [
        {
          "indexed": false,
          "name": "account",
          "type": "address"
        },
        {
          "indexed": false,
          "name": "token",
          "type": "address"
        },
        {
          "indexed": false,
          "name": "amount",
          "type": "uint256"
        },
        {
          "indexed": false,
          "name": "rate",
          "type": "uint256"
        }
      ],
      "name": "TokensSold",
      "type": "event",
      "signature": "0x697c42d55a5e1fed3f464ec6f38b32546a0bd368dc8068b065c67566d73f3290"
    },
    {
      "anonymous": false,
      "inputs": [
        {
          "indexed": false,
          "name": "account",
          "type": "address"
        },
        {
          "indexed": false,
          "name": "token",
          "type": "address"
        },
        {
          "indexed": false,
          "name": "amount",
          "type": "uint256"
        },
        {
          "indexed": false,
          "name": "restaurantId",
          "type": "uint256"
        },
        {
          "indexed": false,
          "name": "reviewId",
          "type": "uint256"
        },
        {
          "indexed": false,
          "name": "content",
          "type": "string"
        }
      ],
      "name": "ReviewAdded",
      "type": "event",
      "signature": "0x8286c62ffd92fc179b5eca6b112f889c9c70468c3a2dcb6465dafb2024f403a6"
    },
    {
      "anonymous": false,
      "inputs": [
        {
          "indexed": false,
          "name": "restaurantId",
          "type": "uint256"
        },
        {
          "indexed": false,
          "name": "name",
          "type": "string"
        },
        {
          "indexed": false,
          "name": "street",
          "type": "string"
        }
      ],
      "name": "RestaurantAdded",
      "type": "event",
      "signature": "0xa0f9a27bac60d774068e708b3a2c7e0235406d4c83e8bada56ee23103e7e7ca8"
    },
    {
      "constant": false,
      "inputs": [
        {
          "name": "_content",
          "type": "string"
        },
        {
          "name": "_restaurantId",
          "type": "uint256"
        }
      ],
      "name": "addReview",
      "outputs": [],
      "payable": true,
      "stateMutability": "payable",
      "type": "function",
      "signature": "0xaac0039a"
    },
    {
      "constant": false,
      "inputs": [
        {
          "name": "_name",
          "type": "string"
        },
        {
          "name": "_street",
          "type": "string"
        }
      ],
      "name": "addRestaurant",
      "outputs": [],
      "payable": false,
      "stateMutability": "nonpayable",
      "type": "function",
      "signature": "0x63250796"
    },
    {
      "constant": false,
      "inputs": [],
      "name": "buyTokens",
      "outputs": [],
      "payable": true,
      "stateMutability": "payable",
      "type": "function",
      "signature": "0xd0febe4c"
    },
    {
      "constant": false,
      "inputs": [
        {
          "name": "_amount",
          "type": "uint256"
        }
      ],
      "name": "sellTokens",
      "outputs": [],
      "payable": false,
      "stateMutability": "nonpayable",
      "type": "function",
      "signature": "0x6c11bcd3"
    }
  ],
  "bytecode": "0x60c0604052601a60808190527f45746852657669657720496e7374616e742045786368616e676500000000000060a0908152620000409160009190620000ab565b5060646002556000600355600060045560016005553480156200006257600080fd5b5060405160208062001206833981018060405260208110156200008457600080fd5b505160018054600160a060020a031916600160a060020a0390921691909117905562000150565b828054600181600116156101000203166002900490600052602060002090601f016020900481019282601f10620000ee57805160ff19168380011785556200011e565b828001600101855582156200011e579182015b828111156200011e57825182559160200191906001019062000101565b506200012c92915062000130565b5090565b6200014d91905b808211156200012c576000815560010162000137565b90565b6110a680620001606000396000f3fe6080604052600436106100b95763ffffffff7c010000000000000000000000000000000000000000000000000000000060003504166306fdde0381146100be57806320fceae8146101485780632c4e722e1461016f5780632f8fa8451461018457806363250796146101995780636c11bcd3146102d5578063aac0039a146102ff578063ad5461d8146103a7578063d0febe4c146104b6578063e600f7af146104be578063e83ddcea146104d3578063fc0c546a1461055d575b600080fd5b3480156100ca57600080fd5b506100d361058e565b6040805160208082528351818301528351919283929083019185019080838360005b8381101561010d5781810151838201526020016100f5565b50505050905090810190601f16801561013a5780820380516001836020036101000a031916815260200191505b509250505060405180910390f35b34801561015457600080fd5b5061015d61061c565b60408051918252519081900360200190f35b34801561017b57600080fd5b5061015d610622565b34801561019057600080fd5b5061015d610628565b3480156101a557600080fd5b506102d3600480360360408110156101bc57600080fd5b8101906020810181356401000000008111156101d757600080fd5b8201836020820111156101e957600080fd5b8035906020019184600183028401116401000000008311171561020b57600080fd5b91908080601f016020809104026020016040519081016040528093929190818152602001838380828437600092019190915250929594936020810193503591505064010000000081111561025e57600080fd5b82018360208201111561027057600080fd5b8035906020019184600183028401116401000000008311171561029257600080fd5b91908080601f01602080910402602001604051908101604052809392919081815260200183838082843760009201919091525092955061062e945050505050565b005b3480156102e157600080fd5b506102d3600480360360208110156102f857600080fd5b50356107ad565b6102d36004803603604081101561031557600080fd5b81019060208101813564010000000081111561033057600080fd5b82018360208201111561034257600080fd5b8035906020019184600183028401116401000000008311171561036457600080fd5b91908080601f016020809104026020016040519081016040528093929190818152602001838380828437600092019190915250929550509135925061098e915050565b3480156103b357600080fd5b506103d1600480360360208110156103ca57600080fd5b5035610c45565b604051808481526020018060200180602001838103835285818151815260200191508051906020019080838360005b83811015610418578181015183820152602001610400565b50505050905090810190601f1680156104455780820380516001836020036101000a031916815260200191505b50838103825284518152845160209182019186019080838360005b83811015610478578181015183820152602001610460565b50505050905090810190601f1680156104a55780820380516001836020036101000a031916815260200191505b509550505050505060405180910390f35b6102d3610d7e565b3480156104ca57600080fd5b5061015d610f12565b3480156104df57600080fd5b506104fd600480360360208110156104f657600080fd5b5035610f18565b604051808581526020018481526020018060200183600160a060020a0316600160a060020a031681526020018281038252848181518152602001915080519060200190808383600083811015610478578181015183820152602001610460565b34801561056957600080fd5b50610572610fd0565b60408051600160a060020a039092168252519081900360200190f35b6000805460408051602060026001851615610100026000190190941693909304601f810184900484028201840190925281815292918301828280156106145780601f106105e957610100808354040283529160200191610614565b820191906000526020600020905b8154815290600101906020018083116105f757829003601f168201915b505050505081565b60035481565b60025481565b60045481565b600480546001908101918290556040805160608101825283815260208082018781528284018790526000958652600782529290942081518155915180519194929361067f9390850192910190610fdf565b506040820151805161069b916002840191602090910190610fdf565b509050507fa0f9a27bac60d774068e708b3a2c7e0235406d4c83e8bada56ee23103e7e7ca86004548383604051808481526020018060200180602001838103835285818151815260200191508051906020019080838360005b8381101561070c5781810151838201526020016106f4565b50505050905090810190601f1680156107395780820380516001836020036101000a031916815260200191505b50838103825284518152845160209182019186019080838360005b8381101561076c578181015183820152602001610754565b50505050905090810190601f1680156107995780820380516001836020036101000a031916815260200191505b509550505050505060405180910390a15050565b600154604080517f70a0823100000000000000000000000000000000000000000000000000000000815233600482015290518392600160a060020a0316916370a08231916024808301926020929190829003018186803b15801561081057600080fd5b505afa158015610824573d6000803e3d6000fd5b505050506040513d602081101561083a57600080fd5b5051101561084757600080fd5b60006002548281151561085657fe5b049050303181111561086757600080fd5b600154604080517f23b872dd000000000000000000000000000000000000000000000000000000008152336004820152306024820152604481018590529051600160a060020a03909216916323b872dd916064808201926020929091908290030181600087803b1580156108da57600080fd5b505af11580156108ee573d6000803e3d6000fd5b505050506040513d602081101561090457600080fd5b5050604051339082156108fc029083906000818181858888f19350505050158015610933573d6000803e3d6000fd5b5060015460025460408051338152600160a060020a0390931660208401528281018590526060830191909152517f697c42d55a5e1fed3f464ec6f38b32546a0bd368dc8068b065c67566d73f32909181900360800190a15050565b60055460038054600190810191829055604080516080810182528381526020808201878152828401898152336060850152600096875260068352939095208251815594519385019390935590518051670de0b6b3a7640000909502949193926109ff92600285019290910190610fdf565b50606091909101516003909101805473ffffffffffffffffffffffffffffffffffffffff1916600160a060020a03928316179055600154604080517f70a082310000000000000000000000000000000000000000000000000000000081523060048201529051849392909216916370a0823191602480820192602092909190829003018186803b158015610a9257600080fd5b505afa158015610aa6573d6000803e3d6000fd5b505050506040513d6020811015610abc57600080fd5b50511015610ac957600080fd5b600154604080517fa9059cbb000000000000000000000000000000000000000000000000000000008152336004820152602481018490529051600160a060020a039092169163a9059cbb916044808201926020929091908290030181600087803b158015610b3657600080fd5b505af1158015610b4a573d6000803e3d6000fd5b505050506040513d6020811015610b6057600080fd5b50506001546003546040805133808252600160a060020a039094166020828101829052928201869052606082018790526080820184905260c060a0830181815289519184019190915288517f8286c62ffd92fc179b5eca6b112f889c9c70468c3a2dcb6465dafb2024f403a69695929488948a94938c939192909160e084019185019080838360005b83811015610c01578181015183820152602001610be9565b50505050905090810190601f168015610c2e5780820380516001836020036101000a031916815260200191505b5097505050505050505060405180910390a1505050565b6007602090815260009182526040918290208054600180830180548651600293821615610100026000190190911692909204601f810186900486028301860190965285825291949293909290830182828015610ce25780601f10610cb757610100808354040283529160200191610ce2565b820191906000526020600020905b815481529060010190602001808311610cc557829003601f168201915b50505060028085018054604080516020601f6000196101006001871615020190941695909504928301859004850281018501909152818152959695945090925090830182828015610d745780601f10610d4957610100808354040283529160200191610d74565b820191906000526020600020905b815481529060010190602001808311610d5757829003601f168201915b5050505050905083565b600254600154604080517f70a08231000000000000000000000000000000000000000000000000000000008152306004820152905134909302928392600160a060020a0316916370a08231916024808301926020929190829003018186803b158015610de957600080fd5b505afa158015610dfd573d6000803e3d6000fd5b505050506040513d6020811015610e1357600080fd5b50511015610e2057600080fd5b600154604080517fa9059cbb000000000000000000000000000000000000000000000000000000008152336004820152602481018490529051600160a060020a039092169163a9059cbb916044808201926020929091908290030181600087803b158015610e8d57600080fd5b505af1158015610ea1573d6000803e3d6000fd5b505050506040513d6020811015610eb757600080fd5b505060015460025460408051338152600160a060020a0390931660208401528281018490526060830191909152517f6faf93231a456e552dbc9961f58d9713ee4f2e69d15f1975b050ef0911053a7b9181900360800190a150565b60055481565b60066020908152600091825260409182902080546001808301546002808501805488519481161561010002600019011691909104601f810187900487028401870190975286835292959094919291830182828015610fb75780601f10610f8c57610100808354040283529160200191610fb7565b820191906000526020600020905b815481529060010190602001808311610f9a57829003601f168201915b50505060039093015491925050600160a060020a031684565b600154600160a060020a031681565b828054600181600116156101000203166002900490600052602060002090601f016020900481019282601f1061102057805160ff191683800117855561104d565b8280016001018555821561104d579182015b8281111561104d578251825591602001919060010190611032565b5061105992915061105d565b5090565b61107791905b808211156110595760008155600101611063565b9056fea165627a7a72305820dc3ca92a06c7313e22d529773f8183c48b89beed9b291082bcd66e17105e0c220029",
  "source": "pragma solidity ^0.5.0;\r\n\r\nimport \"./Token.sol\";\r\n\r\ncontract EthReview {\r\n  string public name = \"EthReview Instant Exchange\";\r\n  Token public token;\r\n  uint public rate = 100;\r\n  uint public reviewId = 0;\r\n  uint public restaurantId = 0;\r\n  uint public tokenAmountReview = 1;\r\n\r\n  struct Review {\r\n    uint id;\r\n    uint restaurantId;\r\n    string content;\r\n    address account;\r\n  }\r\n\r\n  struct Restaurant{\r\n    uint id;\r\n    string name;\r\n    string street;\r\n  }\r\n\r\n  mapping(uint => Review) public reviews;\r\n  mapping(uint => Restaurant) public restaurants;\r\n\r\n\r\n  event TokensPurchased(\r\n    address account,\r\n    address token,\r\n    uint amount,\r\n    uint rate\r\n  );\r\n\r\n  event TokensSold(\r\n    address account,\r\n    address token,\r\n    uint amount,\r\n    uint rate\r\n  );\r\n\r\n  event ReviewAdded(\r\n    address account,\r\n    address token,\r\n    uint amount,\r\n    uint restaurantId,\r\n    uint reviewId,\r\n    string  content\r\n    );\r\n\r\n  event RestaurantAdded(\r\n    uint restaurantId,\r\n    string name,\r\n    string street\r\n  );\r\n\r\n  constructor(Token _token) public {\r\n    token = _token;\r\n  }\r\n\r\n  function addReview(string memory _content, uint _restaurantId) public payable{\r\n      uint tokenAmount = tokenAmountReview * 1000000000000000000;\r\n      reviewId++;\r\n      reviews[reviewId] = Review(reviewId, _restaurantId, _content, msg.sender);\r\n\r\n      // Require that EthReview has enough tokens\r\n    require(token.balanceOf(address(this)) >= tokenAmount);\r\n\r\n    // Transfer tokens to the user\r\n    token.transfer(msg.sender, tokenAmount);\r\n\r\n    //emit an event\r\n    emit ReviewAdded(msg.sender, address(token), tokenAmount, _restaurantId, reviewId, _content);\r\n  }\r\n\r\n  function addRestaurant(string memory _name, string memory _street) public{\r\n    restaurantId++;\r\n    restaurants[restaurantId] = Restaurant(restaurantId, _name, _street);\r\n    emit RestaurantAdded(restaurantId, _name, _street);\r\n  }\r\n\r\n  function buyTokens() public payable {\r\n    // Calculate the number of tokens to buy\r\n    uint tokenAmount = msg.value * rate;\r\n\r\n    // Require that EthSwap has enough tokens\r\n    require(token.balanceOf(address(this)) >= tokenAmount);\r\n\r\n    // Transfer tokens to the user\r\n    token.transfer(msg.sender, tokenAmount);\r\n\r\n    // Emit an event\r\n    emit TokensPurchased(msg.sender, address(token), tokenAmount, rate);\r\n  }\r\n\r\n  function sellTokens(uint _amount) public {\r\n    // User can't sell more tokens than they have\r\n    require(token.balanceOf(msg.sender) >= _amount);\r\n\r\n    // Calculate the amount of Ether to redeem\r\n    uint etherAmount = _amount / rate;\r\n\r\n    // Require that EthSwap has enough Ether\r\n    require(address(this).balance >= etherAmount);\r\n\r\n    // Perform sale\r\n    token.transferFrom(msg.sender, address(this), _amount);\r\n    msg.sender.transfer(etherAmount);\r\n\r\n    // Emit an event\r\n    emit TokensSold(msg.sender, address(token), _amount, rate);\r\n  }\r\n\r\n}\r\n",
  "sourcePath": "C:/Users/Utilizador/Documents/Projects/Review_engine/contracts/EthReview.sol",
  "compiler": {
    "name": "solc",
    "version": "0.5.0+commit.1d4f565a.Emscripten.clang"
  },
  "schemaVersion": "3.0.1",
  "updatedAt": "2022-04-04T14:34:54.371Z",
  "devdoc": {
    "methods": {}
  },
  "userdoc": {
    "methods": {}
  }
}